{
  "_format": "hh-sol-artifact-1",
  "contractName": "NFToken",
  "sourceName": "contracts/NminSite.sol",
  "abi": [
    {
      "inputs": [
        {
          "internalType": "string",
          "name": "name",
          "type": "string"
        },
        {
          "internalType": "string",
          "name": "symbol",
          "type": "string"
        }
      ],
      "stateMutability": "nonpayable",
      "type": "constructor"
    },
    {
      "anonymous": false,
      "inputs": [
        {
          "indexed": true,
          "internalType": "address",
          "name": "owner",
          "type": "address"
        },
        {
          "indexed": true,
          "internalType": "address",
          "name": "approved",
          "type": "address"
        },
        {
          "indexed": true,
          "internalType": "uint256",
          "name": "tokenId",
          "type": "uint256"
        }
      ],
      "name": "Approval",
      "type": "event"
    },
    {
      "anonymous": false,
      "inputs": [
        {
          "indexed": true,
          "internalType": "address",
          "name": "owner",
          "type": "address"
        },
        {
          "indexed": true,
          "internalType": "address",
          "name": "operator",
          "type": "address"
        },
        {
          "indexed": false,
          "internalType": "bool",
          "name": "approved",
          "type": "bool"
        }
      ],
      "name": "ApprovalForAll",
      "type": "event"
    },
    {
      "anonymous": false,
      "inputs": [
        {
          "indexed": true,
          "internalType": "address",
          "name": "previousOwner",
          "type": "address"
        },
        {
          "indexed": true,
          "internalType": "address",
          "name": "newOwner",
          "type": "address"
        }
      ],
      "name": "OwnershipTransferred",
      "type": "event"
    },
    {
      "anonymous": false,
      "inputs": [
        {
          "indexed": false,
          "internalType": "address",
          "name": "account",
          "type": "address"
        }
      ],
      "name": "Paused",
      "type": "event"
    },
    {
      "anonymous": false,
      "inputs": [
        {
          "indexed": true,
          "internalType": "address",
          "name": "from",
          "type": "address"
        },
        {
          "indexed": true,
          "internalType": "address",
          "name": "to",
          "type": "address"
        },
        {
          "indexed": true,
          "internalType": "uint256",
          "name": "tokenId",
          "type": "uint256"
        }
      ],
      "name": "Transfer",
      "type": "event"
    },
    {
      "anonymous": false,
      "inputs": [
        {
          "indexed": false,
          "internalType": "address",
          "name": "account",
          "type": "address"
        }
      ],
      "name": "Unpaused",
      "type": "event"
    },
    {
      "inputs": [
        {
          "internalType": "address",
          "name": "to",
          "type": "address"
        },
        {
          "internalType": "uint256",
          "name": "tokenId",
          "type": "uint256"
        }
      ],
      "name": "approve",
      "outputs": [],
      "stateMutability": "nonpayable",
      "type": "function"
    },
    {
      "inputs": [
        {
          "internalType": "address",
          "name": "owner",
          "type": "address"
        }
      ],
      "name": "balanceOf",
      "outputs": [
        {
          "internalType": "uint256",
          "name": "",
          "type": "uint256"
        }
      ],
      "stateMutability": "view",
      "type": "function"
    },
    {
      "inputs": [
        {
          "internalType": "uint256",
          "name": "tokenId",
          "type": "uint256"
        }
      ],
      "name": "getApproved",
      "outputs": [
        {
          "internalType": "address",
          "name": "",
          "type": "address"
        }
      ],
      "stateMutability": "view",
      "type": "function"
    },
    {
      "inputs": [
        {
          "internalType": "address",
          "name": "owner",
          "type": "address"
        },
        {
          "internalType": "address",
          "name": "operator",
          "type": "address"
        }
      ],
      "name": "isApprovedForAll",
      "outputs": [
        {
          "internalType": "bool",
          "name": "",
          "type": "bool"
        }
      ],
      "stateMutability": "view",
      "type": "function"
    },
    {
      "inputs": [],
      "name": "mint",
      "outputs": [],
      "stateMutability": "nonpayable",
      "type": "function"
    },
    {
      "inputs": [],
      "name": "name",
      "outputs": [
        {
          "internalType": "string",
          "name": "",
          "type": "string"
        }
      ],
      "stateMutability": "view",
      "type": "function"
    },
    {
      "inputs": [],
      "name": "owner",
      "outputs": [
        {
          "internalType": "address",
          "name": "",
          "type": "address"
        }
      ],
      "stateMutability": "view",
      "type": "function"
    },
    {
      "inputs": [
        {
          "internalType": "uint256",
          "name": "tokenId",
          "type": "uint256"
        }
      ],
      "name": "ownerOf",
      "outputs": [
        {
          "internalType": "address",
          "name": "",
          "type": "address"
        }
      ],
      "stateMutability": "view",
      "type": "function"
    },
    {
      "inputs": [],
      "name": "pause",
      "outputs": [],
      "stateMutability": "nonpayable",
      "type": "function"
    },
    {
      "inputs": [],
      "name": "paused",
      "outputs": [
        {
          "internalType": "bool",
          "name": "",
          "type": "bool"
        }
      ],
      "stateMutability": "view",
      "type": "function"
    },
    {
      "inputs": [],
      "name": "renounceOwnership",
      "outputs": [],
      "stateMutability": "nonpayable",
      "type": "function"
    },
    {
      "inputs": [
        {
          "internalType": "address",
          "name": "to",
          "type": "address"
        }
      ],
      "name": "safeMint",
      "outputs": [],
      "stateMutability": "nonpayable",
      "type": "function"
    },
    {
      "inputs": [
        {
          "internalType": "address",
          "name": "from",
          "type": "address"
        },
        {
          "internalType": "address",
          "name": "to",
          "type": "address"
        },
        {
          "internalType": "uint256",
          "name": "tokenId",
          "type": "uint256"
        }
      ],
      "name": "safeTransferFrom",
      "outputs": [],
      "stateMutability": "nonpayable",
      "type": "function"
    },
    {
      "inputs": [
        {
          "internalType": "address",
          "name": "from",
          "type": "address"
        },
        {
          "internalType": "address",
          "name": "to",
          "type": "address"
        },
        {
          "internalType": "uint256",
          "name": "tokenId",
          "type": "uint256"
        },
        {
          "internalType": "bytes",
          "name": "_data",
          "type": "bytes"
        }
      ],
      "name": "safeTransferFrom",
      "outputs": [],
      "stateMutability": "nonpayable",
      "type": "function"
    },
    {
      "inputs": [
        {
          "internalType": "address",
          "name": "operator",
          "type": "address"
        },
        {
          "internalType": "bool",
          "name": "approved",
          "type": "bool"
        }
      ],
      "name": "setApprovalForAll",
      "outputs": [],
      "stateMutability": "nonpayable",
      "type": "function"
    },
    {
      "inputs": [
        {
          "internalType": "bytes4",
          "name": "interfaceId",
          "type": "bytes4"
        }
      ],
      "name": "supportsInterface",
      "outputs": [
        {
          "internalType": "bool",
          "name": "",
          "type": "bool"
        }
      ],
      "stateMutability": "view",
      "type": "function"
    },
    {
      "inputs": [],
      "name": "symbol",
      "outputs": [
        {
          "internalType": "string",
          "name": "",
          "type": "string"
        }
      ],
      "stateMutability": "view",
      "type": "function"
    },
    {
      "inputs": [
        {
          "internalType": "uint256",
          "name": "tokenId",
          "type": "uint256"
        }
      ],
      "name": "tokenURI",
      "outputs": [
        {
          "internalType": "string",
          "name": "",
          "type": "string"
        }
      ],
      "stateMutability": "view",
      "type": "function"
    },
    {
      "inputs": [
        {
          "internalType": "address",
          "name": "from",
          "type": "address"
        },
        {
          "internalType": "address",
          "name": "to",
          "type": "address"
        },
        {
          "internalType": "uint256",
          "name": "tokenId",
          "type": "uint256"
        }
      ],
      "name": "transferFrom",
      "outputs": [],
      "stateMutability": "nonpayable",
      "type": "function"
    },
    {
      "inputs": [
        {
          "internalType": "address",
          "name": "newOwner",
          "type": "address"
        }
      ],
      "name": "transferOwnership",
      "outputs": [],
      "stateMutability": "nonpayable",
      "type": "function"
    },
    {
      "inputs": [],
      "name": "unpause",
      "outputs": [],
      "stateMutability": "nonpayable",
      "type": "function"
    }
  ],
  "bytecode": "0x60806040523480156200001157600080fd5b5060405162001c6438038062001c64833981016040819052620000349162000336565b8151829082906200004d906000906020850190620001c3565b50805162000063906001906020840190620001c3565b50506006805460ff19169055506200007b336200008e565b6200008632620000e8565b5050620003dd565b600680546001600160a01b03838116610100818102610100600160a81b031985161790945560405193909204169182907f8be0079c531659141344cd1fd0a4f28419497f9722a3daafe3b4186f6b6457e090600090a35050565b6006546001600160a01b036101009091041633146200014e5760405162461bcd60e51b815260206004820181905260248201527f4f776e61626c653a2063616c6c6572206973206e6f7420746865206f776e657260448201526064015b60405180910390fd5b6001600160a01b038116620001b55760405162461bcd60e51b815260206004820152602660248201527f4f776e61626c653a206e6577206f776e657220697320746865207a65726f206160448201526564647265737360d01b606482015260840162000145565b620001c0816200008e565b50565b828054620001d190620003a0565b90600052602060002090601f016020900481019282620001f5576000855562000240565b82601f106200021057805160ff191683800117855562000240565b8280016001018555821562000240579182015b828111156200024057825182559160200191906001019062000223565b506200024e92915062000252565b5090565b5b808211156200024e576000815560010162000253565b634e487b7160e01b600052604160045260246000fd5b600082601f8301126200029157600080fd5b81516001600160401b0380821115620002ae57620002ae62000269565b604051601f8301601f19908116603f01168101908282118183101715620002d957620002d962000269565b81604052838152602092508683858801011115620002f657600080fd5b600091505b838210156200031a5785820183015181830184015290820190620002fb565b838211156200032c5760008385830101525b9695505050505050565b600080604083850312156200034a57600080fd5b82516001600160401b03808211156200036257600080fd5b62000370868387016200027f565b935060208501519150808211156200038757600080fd5b5062000396858286016200027f565b9150509250929050565b600181811c90821680620003b557607f821691505b60208210811415620003d757634e487b7160e01b600052602260045260246000fd5b50919050565b61187780620003ed6000396000f3fe608060405234801561001057600080fd5b50600436106101375760003560e01c80636352211e116100b857806395d89b411161007c57806395d89b4114610267578063a22cb4651461026f578063b88d4fde14610282578063c87b56dd14610295578063e985e9c5146102a8578063f2fde38b146102e457600080fd5b80636352211e1461020d57806370a0823114610220578063715018a6146102415780638456cb59146102495780638da5cb5b1461025157600080fd5b806323b872dd116100ff57806323b872dd146101c15780633f4ba83a146101d457806340d097c3146101dc57806342842e0e146101ef5780635c975abb1461020257600080fd5b806301ffc9a71461013c57806306fdde0314610164578063081812fc14610179578063095ea7b3146101a45780631249c58b146101b9575b600080fd5b61014f61014a366004611352565b6102f7565b60405190151581526020015b60405180910390f35b61016c610349565b60405161015b91906113c7565b61018c6101873660046113da565b6103db565b6040516001600160a01b03909116815260200161015b565b6101b76101b236600461140f565b610475565b005b6101b761058b565b6101b76101cf366004611439565b6105b3565b6101b76105e4565b6101b76101ea366004611475565b61061e565b6101b76101fd366004611439565b610677565b60065460ff1661014f565b61018c61021b3660046113da565b610692565b61023361022e366004611475565b610709565b60405190815260200161015b565b6101b7610790565b6101b76107ca565b60065461010090046001600160a01b031661018c565b61016c610802565b6101b761027d366004611490565b610811565b6101b76102903660046114e2565b61081c565b61016c6102a33660046113da565b610854565b61014f6102b63660046115be565b6001600160a01b03918216600090815260056020908152604080832093909416825291909152205460ff1690565b6101b76102f2366004611475565b61093c565b60006001600160e01b031982166380ac58cd60e01b148061032857506001600160e01b03198216635b5e139f60e01b145b8061034357506301ffc9a760e01b6001600160e01b03198316145b92915050565b606060008054610358906115f1565b80601f0160208091040260200160405190810160405280929190818152602001828054610384906115f1565b80156103d15780601f106103a6576101008083540402835291602001916103d1565b820191906000526020600020905b8154815290600101906020018083116103b457829003601f168201915b5050505050905090565b6000818152600260205260408120546001600160a01b03166104595760405162461bcd60e51b815260206004820152602c60248201527f4552433732313a20617070726f76656420717565727920666f72206e6f6e657860448201526b34b9ba32b73a103a37b5b2b760a11b60648201526084015b60405180910390fd5b506000908152600460205260409020546001600160a01b031690565b600061048082610692565b9050806001600160a01b0316836001600160a01b031614156104ee5760405162461bcd60e51b815260206004820152602160248201527f4552433732313a20617070726f76616c20746f2063757272656e74206f776e656044820152603960f91b6064820152608401610450565b336001600160a01b038216148061050a575061050a81336102b6565b61057c5760405162461bcd60e51b815260206004820152603860248201527f4552433732313a20617070726f76652063616c6c6572206973206e6f74206f7760448201527f6e6572206e6f7220617070726f76656420666f7220616c6c00000000000000006064820152608401610450565b61058683836109da565b505050565b600061059660075490565b90506105a6600780546001019055565b6105b03382610a48565b50565b6105bd3382610a62565b6105d95760405162461bcd60e51b81526004016104509061162c565b610586838383610b59565b6006546001600160a01b036101009091041633146106145760405162461bcd60e51b81526004016104509061167d565b61061c610d00565b565b6006546001600160a01b0361010090910416331461064e5760405162461bcd60e51b81526004016104509061167d565b600061065960075490565b9050610669600780546001019055565b6106738282610a48565b5050565b6105868383836040518060200160405280600081525061081c565b6000818152600260205260408120546001600160a01b0316806103435760405162461bcd60e51b815260206004820152602960248201527f4552433732313a206f776e657220717565727920666f72206e6f6e657869737460448201526832b73a103a37b5b2b760b91b6064820152608401610450565b60006001600160a01b0382166107745760405162461bcd60e51b815260206004820152602a60248201527f4552433732313a2062616c616e636520717565727920666f7220746865207a65604482015269726f206164647265737360b01b6064820152608401610450565b506001600160a01b031660009081526003602052604090205490565b6006546001600160a01b036101009091041633146107c05760405162461bcd60e51b81526004016104509061167d565b61061c6000610d93565b6006546001600160a01b036101009091041633146107fa5760405162461bcd60e51b81526004016104509061167d565b61061c610ded565b606060018054610358906115f1565b610673338383610e68565b6108263383610a62565b6108425760405162461bcd60e51b81526004016104509061162c565b61084e84848484610f37565b50505050565b6000818152600260205260409020546060906001600160a01b03166108d35760405162461bcd60e51b815260206004820152602f60248201527f4552433732314d657461646174613a2055524920717565727920666f72206e6f60448201526e3732bc34b9ba32b73a103a37b5b2b760891b6064820152608401610450565b60006108ea60408051602081019091526000815290565b9050600081511161090a5760405180602001604052806000815250610935565b8061091484610f6a565b6040516020016109259291906116b2565b6040516020818303038152906040525b9392505050565b6006546001600160a01b0361010090910416331461096c5760405162461bcd60e51b81526004016104509061167d565b6001600160a01b0381166109d15760405162461bcd60e51b815260206004820152602660248201527f4f776e61626c653a206e6577206f776e657220697320746865207a65726f206160448201526564647265737360d01b6064820152608401610450565b6105b081610d93565b600081815260046020526040902080546001600160a01b0319166001600160a01b0384169081179091558190610a0f82610692565b6001600160a01b03167f8c5be1e5ebec7d5bd14f71427d1e84f3dd0314c0f7b2291e5b200ac8c7c3b92560405160405180910390a45050565b610673828260405180602001604052806000815250611068565b6000818152600260205260408120546001600160a01b0316610adb5760405162461bcd60e51b815260206004820152602c60248201527f4552433732313a206f70657261746f7220717565727920666f72206e6f6e657860448201526b34b9ba32b73a103a37b5b2b760a11b6064820152608401610450565b6000610ae683610692565b9050806001600160a01b0316846001600160a01b03161480610b2d57506001600160a01b0380821660009081526005602090815260408083209388168352929052205460ff165b80610b515750836001600160a01b0316610b46846103db565b6001600160a01b0316145b949350505050565b826001600160a01b0316610b6c82610692565b6001600160a01b031614610bd05760405162461bcd60e51b815260206004820152602560248201527f4552433732313a207472616e736665722066726f6d20696e636f72726563742060448201526437bbb732b960d91b6064820152608401610450565b6001600160a01b038216610c325760405162461bcd60e51b8152602060048201526024808201527f4552433732313a207472616e7366657220746f20746865207a65726f206164646044820152637265737360e01b6064820152608401610450565b610c3d83838361109b565b610c486000826109da565b6001600160a01b0383166000908152600360205260408120805460019290610c719084906116f7565b90915550506001600160a01b0382166000908152600360205260408120805460019290610c9f90849061170e565b909155505060008181526002602052604080822080546001600160a01b0319166001600160a01b0386811691821790925591518493918716917fddf252ad1be2c89b69c2b068fc378daa952ba7f163c4a11628f55a4df523b3ef91a4505050565b60065460ff16610d495760405162461bcd60e51b815260206004820152601460248201527314185d5cd8589b194e881b9bdd081c185d5cd95960621b6044820152606401610450565b6006805460ff191690557f5db9ee0a495bf2e6ff9c91a7834c1ba4fdd244a5e8aa4e537bd38aeae4b073aa335b6040516001600160a01b03909116815260200160405180910390a1565b600680546001600160a01b03838116610100818102610100600160a81b031985161790945560405193909204169182907f8be0079c531659141344cd1fd0a4f28419497f9722a3daafe3b4186f6b6457e090600090a35050565b60065460ff1615610e335760405162461bcd60e51b815260206004820152601060248201526f14185d5cd8589b194e881c185d5cd95960821b6044820152606401610450565b6006805460ff191660011790557f62e78cea01bee320cd4e420270b5ea74000d11b0c9f74754ebdbfc544b05a258610d763390565b816001600160a01b0316836001600160a01b03161415610eca5760405162461bcd60e51b815260206004820152601960248201527f4552433732313a20617070726f766520746f2063616c6c6572000000000000006044820152606401610450565b6001600160a01b03838116600081815260056020908152604080832094871680845294825291829020805460ff191686151590811790915591519182527f17307eab39ab6107e8899845ad3d59bd9653f200f220920489ca2b5937696c31910160405180910390a3505050565b610f42848484610b59565b610f4e848484846110e1565b61084e5760405162461bcd60e51b815260040161045090611726565b606081610f8e5750506040805180820190915260018152600360fc1b602082015290565b8160005b8115610fb85780610fa281611778565b9150610fb19050600a836117a9565b9150610f92565b60008167ffffffffffffffff811115610fd357610fd36114cc565b6040519080825280601f01601f191660200182016040528015610ffd576020820181803683370190505b5090505b8415610b51576110126001836116f7565b915061101f600a866117bd565b61102a90603061170e565b60f81b81838151811061103f5761103f6117d1565b60200101906001600160f81b031916908160001a905350611061600a866117a9565b9450611001565b61107283836111ee565b61107f60008484846110e1565b6105865760405162461bcd60e51b815260040161045090611726565b60065460ff16156105865760405162461bcd60e51b815260206004820152601060248201526f14185d5cd8589b194e881c185d5cd95960821b6044820152606401610450565b60006001600160a01b0384163b156111e357604051630a85bd0160e11b81526001600160a01b0385169063150b7a02906111259033908990889088906004016117e7565b602060405180830381600087803b15801561113f57600080fd5b505af192505050801561116f575060408051601f3d908101601f1916820190925261116c91810190611824565b60015b6111c9573d80801561119d576040519150601f19603f3d011682016040523d82523d6000602084013e6111a2565b606091505b5080516111c15760405162461bcd60e51b815260040161045090611726565b805181602001fd5b6001600160e01b031916630a85bd0160e11b149050610b51565b506001949350505050565b6001600160a01b0382166112445760405162461bcd60e51b815260206004820181905260248201527f4552433732313a206d696e7420746f20746865207a65726f20616464726573736044820152606401610450565b6000818152600260205260409020546001600160a01b0316156112a95760405162461bcd60e51b815260206004820152601c60248201527f4552433732313a20746f6b656e20616c7265616479206d696e746564000000006044820152606401610450565b6112b56000838361109b565b6001600160a01b03821660009081526003602052604081208054600192906112de90849061170e565b909155505060008181526002602052604080822080546001600160a01b0319166001600160a01b03861690811790915590518392907fddf252ad1be2c89b69c2b068fc378daa952ba7f163c4a11628f55a4df523b3ef908290a45050565b6001600160e01b0319811681146105b057600080fd5b60006020828403121561136457600080fd5b81356109358161133c565b60005b8381101561138a578181015183820152602001611372565b8381111561084e5750506000910152565b600081518084526113b381602086016020860161136f565b601f01601f19169290920160200192915050565b602081526000610935602083018461139b565b6000602082840312156113ec57600080fd5b5035919050565b80356001600160a01b038116811461140a57600080fd5b919050565b6000806040838503121561142257600080fd5b61142b836113f3565b946020939093013593505050565b60008060006060848603121561144e57600080fd5b611457846113f3565b9250611465602085016113f3565b9150604084013590509250925092565b60006020828403121561148757600080fd5b610935826113f3565b600080604083850312156114a357600080fd5b6114ac836113f3565b9150602083013580151581146114c157600080fd5b809150509250929050565b634e487b7160e01b600052604160045260246000fd5b600080600080608085870312156114f857600080fd5b611501856113f3565b935061150f602086016113f3565b925060408501359150606085013567ffffffffffffffff8082111561153357600080fd5b818701915087601f83011261154757600080fd5b813581811115611559576115596114cc565b604051601f8201601f19908116603f01168101908382118183101715611581576115816114cc565b816040528281528a602084870101111561159a57600080fd5b82602086016020830137600060208483010152809550505050505092959194509250565b600080604083850312156115d157600080fd5b6115da836113f3565b91506115e8602084016113f3565b90509250929050565b600181811c9082168061160557607f821691505b6020821081141561162657634e487b7160e01b600052602260045260246000fd5b50919050565b60208082526031908201527f4552433732313a207472616e736665722063616c6c6572206973206e6f74206f6040820152701ddb995c881b9bdc88185c1c1c9bdd9959607a1b606082015260800190565b6020808252818101527f4f776e61626c653a2063616c6c6572206973206e6f7420746865206f776e6572604082015260600190565b600083516116c481846020880161136f565b8351908301906116d881836020880161136f565b01949350505050565b634e487b7160e01b600052601160045260246000fd5b600082821015611709576117096116e1565b500390565b60008219821115611721576117216116e1565b500190565b60208082526032908201527f4552433732313a207472616e7366657220746f206e6f6e20455243373231526560408201527131b2b4bb32b91034b6b83632b6b2b73a32b960711b606082015260800190565b600060001982141561178c5761178c6116e1565b5060010190565b634e487b7160e01b600052601260045260246000fd5b6000826117b8576117b8611793565b500490565b6000826117cc576117cc611793565b500690565b634e487b7160e01b600052603260045260246000fd5b6001600160a01b038581168252841660208201526040810183905260806060820181905260009061181a9083018461139b565b9695505050505050565b60006020828403121561183657600080fd5b81516109358161133c56fea26469706673582212209af4dfbdc433fac79570ccef38e45ec89e7f33fe42b35b3da07d808b9fa8105c64736f6c63430008090033",
  "linkReferences": {},
  "deployedLinkReferences": {}
}